:10092500C4E300BAC300CAC000BDE700BFB500C834
:10093500E700D4C6003C6666666666663C183818ED
:05094500181818187ECF
:04094A007FE87E03C1
:10094E00E4FDFCC3ED9FEC9E5015E4FBFA0BBB00DF
:0F095E00010AEB647F4A70F50DBD00010C80E4C7
:01096D002267
:10032F0012081212096E12099E7BFF7A097925E4D1
:10033F00FDFF12056812085212094A12099E7BFF2F
:10034F007A097928E4FDFF12056812085212094A4A
:10035F0012099E7BFF7A09792BE4FDFF12056812C3
:10036F00085212094A12099E7BFF7A09792EE4FD81
:10037F00FF12056812085212094A12099E7BFF7A72
:10038F00097931E4FDFF12056812085212094A1269
:10039F00099E7BFF7A097934E4FDFF120568120884
:1003AF005212094A12099E7BFF7A097937E4FDFF41
:1003BF0012056812085212094A12099E7BFF7A0928
:1003CF00793AE4FDFF1206777BFF7A097942E4FD63
:1003DF007F081206777BFF7A09793A7D08E4FF12CE
:1003EF0006777BFF7A0979427D087F08120677121C
:0C03FF0008527FD07E0712094E02033521
:100003000001020408102040807C42427C424242AC
:100013007C3C4240404040427C7C4242424242421D
:100023007C100110011001887F88404C202C040AA9
:1000330004891488244824484428440804080508EB
:10004300020800083F082008103F0824042404A4E1
:100053007F24041204140408041404220421050058
:100063000280000001FC7F0401F41F0411FC7F04E3
:1000730011F41F140124234415220912114961802C
:1000830000080008000800083E7F2244224422445E
:100093002242222422282210222822443E422201E4
:1000A300000000FC1F0000000000000000FF7F4074
:1000B3000020002000100208040408FE1F041000A2
:1000C30010A3AC00000000000000000000000000CE
:1000D300000000000000583800000000000000008D
:1000E30000000000A1A300000000000000000000C9
:1000F3000000000000000000001824241800000085
:1001030000000000000000C4E30010011001100112
:10011300887F88404C202C040A04891488244824AE
:1001230048442844080408050802BAC30008000824
:100133003F082008103F0824042404A47F24041249
:1001430004140408041404220421050002BFB500AA
:1001530080000001FC7F0401F41F0411FC7F0411E3
:10016300F41F14012423441522091211496180004C
:10017300C8E700080008000800083E7F2244224424
:1001830022442242222422282210222822443E42B0
:10019300220100D4C6000000FC1F00000000000084
:1001A3000000FF7F40002000200010020804040824
:1001B300FE1F04100010CAC000400448044804484D
:1001C300044804FF7F4804480448044804C8070857
:1001D3000008000800F83F0000BDE7000000F80F2A
:1001E30088088808F80F88088808F80F4001300647
:1001F3002C1A23622002100210020802000000FFE2
:100203000101013109090909897101010101FFFF97
:0F0213008080808080809681808080808080FFC6
:06088E00EB04FFEB93FDFB
:100894007E08C2A2C2A1AC061EEC600EEF3392A089
:1008A400D2A2EF25E0FFC2A280EC7E08AF061EEFC5
:1008B400600EED3392A0D2A2ED25E0FDC2A280EC41
:0108C4002211
:10081200E4FB7A04EB14601314601614601914607C
:100822001C2404701FE4FD7F0980167D057F0A8069
:10083200107D077F0B800A7D017F0C8004E4FD7F21
:0F0842000F120894DACED2A100C2A10BBB05C3DE
:010851002284
:10096E00E4FFE4FEEF75F008A424082EF8E4F60E7A
:07097E00BE08F10FBF04EBFE
:01098500224F
:1004D900EFD3940F4003020567ED940F4003020523
:1004E90067EDC39408501BEFC394085009E4F5382D
:1004F9008F39AE058025753801EF24F8F539AE0539
:100509008019EFC3940850077538028F3980087530
:100519003803EF24F8F539ED24F8FEC3740795394B
:10052900FFEB601CE53875F008A424082EF8C0001C
:10053900E6FD7401A807088002C333D8FC4D801B6F
:10054900E53875F008A424082EF8C000E6FD74010A
:0E055900A807088002C333D8FCF45DD000F67A
:010567002271
:10085200E4FBEB04FF74202BF8E6FD120894EB0492
:10086200FF74182BF8E6FD120894EB04FF74102BAA
:10087200F8E6FD120894EB04FF74082BF8E6FD126B
:0B0882000894D2A100C2A10BBB08C764
:01088D002248
:06099E0012096E0208526E
:060733008F558D568B5717
:10073900E4F9E9C395585043E4FCECC395575038A4
:10074900ECFFE5552FFFE433FEC3EF9410EE648010
:1007590094805021E9FFE5562FFFE433FEC3EF945F
:1007690010EE64809480500DE5552CFFE55629FD67
:0B077900E4FB1204D90C80C20980B719
:010784002252
:06040B008F3A8D3B8B3C93
:10041100C3E53C9FFFE49400FE1209928E3E8F3F9C
:10042100C3E53D953BFFE49400FE1209928E408F97
:1004310041E53AC3953C50067E007F0180047EFF72
:100441007FFF8E428F43E53BC3953D50067E007F83
:100451000180047EFF7FFF8E448F45C3E53F9541B8
:10046100FFE53E95408F82F5837B01AD3BAF3A12AC
:1004710004D9E53AB53C06E53B653D605AE5822580
:10048100E0F547E58333F546C3E49541FFE4954044
:10049100FED3E5479FEE6480F8E5466480984012FC
:1004A100E5829541F582E5839540F583E543253A5B
:1004B100F53AC3E547953FE53E6480F8E54664803B
:1004C1009850A6E53F2582F582E53E3583F583E523
:0704D10045253BF53B80923D
:0104D8002201
:060785008B5BAC05AA0726
:10078B00E4F9E9C3955B5018EA29FFAD047B01122C
:10079B0004D9EA29FFE55C2C14FD1204D90980E287
:1007AB00E4F9E9C3955C5018AF02EC29FD7B01120B
:1007BB0004D9E55B2A14FFEC29FD1204D90980E268
:0107CB00220B
:1008C500E4FB90001C12088E90001412088EEB04B5
:1008D500FFEB90000C93FD120894EB04FFEB9000E6
:0F08E5000493FD120894D2A100C2A10BBB08D34B
:0108F40022E1
:0E05F00075F023A424C7F9740035F0FA7BFFE0
:0A05FE008F318D328B338A3489353A
:10060800E4F536E4F537E537131313541FFFE536E1
:1006180025E02FFFE5375407FEAB33AA34A9358F01
:10062800827583001207E5FDAF0674017E00A807F6
:10063800088005C333CE33CED8F9FFEF5D600EE5F1
:10064800312537FFE5322536FD7B01800CE5312564
:1006580037FFE5322536FDE4FB1204D90537E537C7
:0E066800C3941040A10536E536C394104095AA
:010676002261
:0A0677008F288D298B2A8A2B892CED
:10068100E4F52DAB2AAA2BA92C852D8275830012A6
:1006910007E5F9E4FCC374079CFF74017E00A80719
:1006A100088005C333CE33CED8F9FFE9FBEF5B6099
:1006B1000DE5282CFFE529252DFD7B01800BE52883
:1006C1002CFFE529252DFDE4FB1204D90CBC08C53E
:0906D100052DE52DC3940840AA93
:0106DA0022FD
:1006DB008B318A328933AB31AA32A9331207CCFF63
:1006EB006029AB34AA35A9361207CC601E6F6003A4
:1006FB007F012274012533F533E43532F532740171
:10070B002536F536E43535F53580CBAB34AA35A92E
:10071B00361207CCFFAB31AA32A9331207CC6F606C
:08072B00047F0180027F00221F
:0A0222008F488D498B4A8A4B894CA6
:10022C00E4F54DF551F552F553AB4AAA4BA94C8563
:10023C004D827583001207E5700302032E20E7162A
:10024C00755101AF4D054D8F827583001207E5F591
:10025C004EE4F54F803C755102AB4AAA4BA94CAF0A
:10026C004D054D8F827583001207E5F54E854D8245
:10027C007583001207E5700302032EAB4AAA4BA943
:10028C004CAF4D054D8F827583001207E5F54FE499
:10029C00F550E551B4010474088067E4F554E55455
:1002AC0075F023A424C4F9740035F0FA7BFFC00365
:1002BC008B34753500753603D0031206DBEF6023E3
:1002CC00E55475F023A424C4F9740035F0FA7BFFCF
:1002DC0075340075350075364E1206DBEF6004057B
:1002EC005480BBE55475F023A424C7F9740035F091
:1002FC00FA7BFFE5482552FFE5492553FD1205FE23
:10030C0074102552F552E552C39410500302023575
:10031C00E4F55274102553F553C3941050030202A4
:02032C00352278
:01032E0022AC
:0A0568008F288D298B2A8A2B892CFD
:10057200E4FFF582F5831207E5FD607120E706F5D9
:100582002DE4F52E227E02AB2AAA2BA92C8D2D8FCB
:1005920082758300A31207E5F52EE4F52FF530E509
:1005A2003075F023A424C4F9740035F0FA7BFFC03F
:1005B200038B34753500753603D0031206DBEF600A
:1005C20023E53075F023A424C4F9740035F0FA7BD6
:1005D200FF75340075350075362D1206DBEF6004A9
:0D05E200053080BBE530AD29AF281205F0D3
:0105EF0022E9
:1008F5008F5D8D5E8B5FE55F75F023A424C4F9746D
:100905000035F0FA7BFFC0038B347535007536036F
:10091500D0031206DBEFE55FAD5EAF5D1205F02299
:030000000209866C
:0C098600787FE4F6D8FD75815F02032F36
:1007CC00BB010689828A83E0225002E722BBFE022B
:0907DC00E32289828A83E493225E
:1007E500BB010CE58229F582E5833AF583E02250C9
:1007F50006E92582F8E622BBFE06E92582F8E22213
:0D080500E58229F582E5833AF583E493222C
:0C099200EE30E707C3E49FFFE49EFE2266
:00000001FF
